{
  "contractName": "ProMinTrader",
  "abi": [
    {
      "inputs": [],
      "payable": true,
      "stateMutability": "payable",
      "type": "constructor"
    },
    {
      "constant": true,
      "inputs": [
        {
          "internalType": "address",
          "name": "",
          "type": "address"
        }
      ],
      "name": "balances",
      "outputs": [
        {
          "internalType": "uint256",
          "name": "",
          "type": "uint256"
        }
      ],
      "payable": false,
      "stateMutability": "view",
      "type": "function"
    },
    {
      "constant": true,
      "inputs": [],
      "name": "transactionCount",
      "outputs": [
        {
          "internalType": "uint256",
          "name": "",
          "type": "uint256"
        }
      ],
      "payable": false,
      "stateMutability": "view",
      "type": "function"
    },
    {
      "constant": true,
      "inputs": [
        {
          "internalType": "uint256",
          "name": "",
          "type": "uint256"
        }
      ],
      "name": "transactions",
      "outputs": [
        {
          "internalType": "uint256",
          "name": "id",
          "type": "uint256"
        },
        {
          "internalType": "address",
          "name": "walletAddress",
          "type": "address"
        },
        {
          "internalType": "string",
          "name": "coinId",
          "type": "string"
        },
        {
          "internalType": "uint256",
          "name": "amount",
          "type": "uint256"
        },
        {
          "internalType": "uint256",
          "name": "totalPrice",
          "type": "uint256"
        },
        {
          "internalType": "uint256",
          "name": "timestamp",
          "type": "uint256"
        },
        {
          "internalType": "string",
          "name": "transactionType",
          "type": "string"
        }
      ],
      "payable": false,
      "stateMutability": "view",
      "type": "function"
    },
    {
      "constant": false,
      "inputs": [],
      "name": "deposit",
      "outputs": [],
      "payable": true,
      "stateMutability": "payable",
      "type": "function"
    },
    {
      "constant": false,
      "inputs": [
        {
          "internalType": "uint256",
          "name": "_amount",
          "type": "uint256"
        }
      ],
      "name": "withdraw",
      "outputs": [],
      "payable": false,
      "stateMutability": "nonpayable",
      "type": "function"
    },
    {
      "constant": true,
      "inputs": [],
      "name": "getContractBalance",
      "outputs": [
        {
          "internalType": "uint256",
          "name": "",
          "type": "uint256"
        }
      ],
      "payable": false,
      "stateMutability": "view",
      "type": "function"
    },
    {
      "constant": false,
      "inputs": [
        {
          "internalType": "address payable",
          "name": "_recipient",
          "type": "address"
        },
        {
          "internalType": "uint256",
          "name": "_amount",
          "type": "uint256"
        }
      ],
      "name": "sendToAddress",
      "outputs": [],
      "payable": false,
      "stateMutability": "nonpayable",
      "type": "function"
    },
    {
      "constant": false,
      "inputs": [
        {
          "internalType": "address payable",
          "name": "_walletAddress",
          "type": "address"
        },
        {
          "internalType": "string",
          "name": "_coinId",
          "type": "string"
        },
        {
          "internalType": "uint256",
          "name": "_amount",
          "type": "uint256"
        },
        {
          "internalType": "uint256",
          "name": "_totalPrice",
          "type": "uint256"
        },
        {
          "internalType": "string",
          "name": "_transactionType",
          "type": "string"
        }
      ],
      "name": "addTransaction",
      "outputs": [],
      "payable": true,
      "stateMutability": "payable",
      "type": "function"
    },
    {
      "constant": true,
      "inputs": [
        {
          "internalType": "uint256",
          "name": "_transactionId",
          "type": "uint256"
        }
      ],
      "name": "getTransaction",
      "outputs": [
        {
          "internalType": "uint256",
          "name": "id",
          "type": "uint256"
        },
        {
          "internalType": "address",
          "name": "walletAddress",
          "type": "address"
        },
        {
          "internalType": "string",
          "name": "coinId",
          "type": "string"
        },
        {
          "internalType": "uint256",
          "name": "amount",
          "type": "uint256"
        },
        {
          "internalType": "uint256",
          "name": "timestamp",
          "type": "uint256"
        },
        {
          "internalType": "string",
          "name": "transactionType",
          "type": "string"
        }
      ],
      "payable": false,
      "stateMutability": "view",
      "type": "function"
    },
    {
      "constant": true,
      "inputs": [
        {
          "internalType": "address",
          "name": "_walletAddress",
          "type": "address"
        }
      ],
      "name": "getTransactionsByAddress",
      "outputs": [
        {
          "internalType": "uint256[]",
          "name": "",
          "type": "uint256[]"
        }
      ],
      "payable": false,
      "stateMutability": "view",
      "type": "function"
    }
  ],
  "bytecode": "0x608060405234600360003373ffffffffffffffffffffffffffffffffffffffff1673ffffffffffffffffffffffffffffffffffffffff168152602001908152602001600020600082825401925050819055506114b8806100606000396000f3fe6080604052600436106100915760003560e01c80633debd2d8116100595780633debd2d8146104ca5780636f9fb98a146105255780639ace38c214610550578063b77bf600146106bf578063d0e30db0146106ea57610091565b80630947b4dc1461009657806327e235e31461013c5780632cc7af5e146101a15780632e1a7d4d1461032757806333ea3dc814610362575b600080fd5b3480156100a257600080fd5b506100e5600480360360208110156100b957600080fd5b81019080803573ffffffffffffffffffffffffffffffffffffffff1690602001909291905050506106f4565b6040518080602001828103825283818151815260200191508051906020019060200280838360005b8381101561012857808201518184015260208101905061010d565b505050509050019250505060405180910390f35b34801561014857600080fd5b5061018b6004803603602081101561015f57600080fd5b81019080803573ffffffffffffffffffffffffffffffffffffffff16906020019092919050505061078b565b6040518082815260200191505060405180910390f35b610325600480360360a08110156101b757600080fd5b81019080803573ffffffffffffffffffffffffffffffffffffffff169060200190929190803590602001906401000000008111156101f457600080fd5b82018360208201111561020657600080fd5b8035906020019184600183028401116401000000008311171561022857600080fd5b91908080601f016020809104026020016040519081016040528093929190818152602001838380828437600081840152601f19601f82011690508083019250505050505050919291929080359060200190929190803590602001909291908035906020019064010000000081111561029f57600080fd5b8201836020820111156102b157600080fd5b803590602001918460018302840111640100000000831117156102d357600080fd5b91908080601f016020809104026020016040519081016040528093929190818152602001838380828437600081840152601f19601f8201169050808301925050505050505091929192905050506107a3565b005b34801561033357600080fd5b506103606004803603602081101561034a57600080fd5b8101908080359060200190929190505050610c5b565b005b34801561036e57600080fd5b5061039b6004803603602081101561038557600080fd5b8101908080359060200190929190505050610da7565b604051808781526020018673ffffffffffffffffffffffffffffffffffffffff1673ffffffffffffffffffffffffffffffffffffffff1681526020018060200185815260200184815260200180602001838103835287818151815260200191508051906020019080838360005b83811015610423578082015181840152602081019050610408565b50505050905090810190601f1680156104505780820380516001836020036101000a031916815260200191505b50838103825284818151815260200191508051906020019080838360005b8381101561048957808201518184015260208101905061046e565b50505050905090810190601f1680156104b65780820380516001836020036101000a031916815260200191505b509850505050505050505060405180910390f35b3480156104d657600080fd5b50610523600480360360408110156104ed57600080fd5b81019080803573ffffffffffffffffffffffffffffffffffffffff16906020019092919080359060200190929190505050611051565b005b34801561053157600080fd5b5061053a61116b565b6040518082815260200191505060405180910390f35b34801561055c57600080fd5b506105896004803603602081101561057357600080fd5b8101908080359060200190929190505050611173565b604051808881526020018773ffffffffffffffffffffffffffffffffffffffff1673ffffffffffffffffffffffffffffffffffffffff1681526020018060200186815260200185815260200184815260200180602001838103835288818151815260200191508051906020019080838360005b838110156106175780820151818401526020810190506105fc565b50505050905090810190601f1680156106445780820380516001836020036101000a031916815260200191505b50838103825284818151815260200191508051906020019080838360005b8381101561067d578082015181840152602081019050610662565b50505050905090810190601f1680156106aa5780820380516001836020036101000a031916815260200191505b50995050505050505050505060405180910390f35b3480156106cb57600080fd5b506106d4611312565b6040518082815260200191505060405180910390f35b6106f2611318565b005b6060600260008373ffffffffffffffffffffffffffffffffffffffff1673ffffffffffffffffffffffffffffffffffffffff16815260200190815260200160002080548060200260200160405190810160405280929190818152602001828054801561077f57602002820191906000526020600020905b81548152602001906001019080831161076b575b50505050509050919050565b60036020528060005260406000206000915090505481565b600042905060006040518060e0016040528060015481526020018873ffffffffffffffffffffffffffffffffffffffff16815260200187815260200186815260200185815260200183815260200184815250908060018154018082558091505090600182039060005260206000209060070201600090919290919091506000820151816000015560208201518160010160006101000a81548173ffffffffffffffffffffffffffffffffffffffff021916908373ffffffffffffffffffffffffffffffffffffffff160217905550604082015181600201908051906020019061088d929190611367565b50606082015181600301556080820151816004015560a0820151816005015560c08201518160060190805190602001906108c8929190611367565b50505050600260008773ffffffffffffffffffffffffffffffffffffffff1673ffffffffffffffffffffffffffffffffffffffff168152602001908152602001600020600154908060018154018082558091505090600182039060005260206000200160009091929091909150555060016000815480929190600101919050555060405160200180807f6275790000000000000000000000000000000000000000000000000000000000815250600301905060405160208183030381529060405280519060200120826040516020018082805190602001908083835b602083106109c757805182526020820191506020810190506020830392506109a4565b6001836020036101000a038019825116818451168082178552505050505050905001915050604051602081830303815290604052805190602001201415610ad55782341015610a7e576040517f08c379a00000000000000000000000000000000000000000000000000000000081526004018080602001828103825260148152602001807f496e73756666696369656e74207061796d656e7400000000000000000000000081525060200191505060405180910390fd5b82341115610ad0573373ffffffffffffffffffffffffffffffffffffffff166108fc8434039081150290604051600060405180830381858888f19350505050158015610ace573d6000803e3d6000fd5b505b610c53565b60405160200180807f73656c6c00000000000000000000000000000000000000000000000000000000815250600401905060405160208183030381529060405280519060200120826040516020018082805190602001908083835b60208310610b535780518252602082019150602081019050602083039250610b30565b6001836020036101000a038019825116818451168082178552505050505050905001915050604051602081830303815290604052805190602001201415610c525747831115610c0a576040517f08c379a00000000000000000000000000000000000000000000000000000000081526004018080602001828103825260208152602001807f496e73756666696369656e742062616c616e636520696e20636f6e747261637481525060200191505060405180910390fd5b8573ffffffffffffffffffffffffffffffffffffffff166108fc849081150290604051600060405180830381858888f19350505050158015610c50573d6000803e3d6000fd5b505b5b505050505050565b80600360003373ffffffffffffffffffffffffffffffffffffffff1673ffffffffffffffffffffffffffffffffffffffff168152602001908152602001600020541015610d10576040517f08c379a00000000000000000000000000000000000000000000000000000000081526004018080602001828103825260148152602001807f496e73756666696369656e742062616c616e636500000000000000000000000081525060200191505060405180910390fd5b80600360003373ffffffffffffffffffffffffffffffffffffffff1673ffffffffffffffffffffffffffffffffffffffff168152602001908152602001600020600082825403925050819055503373ffffffffffffffffffffffffffffffffffffffff166108fc829081150290604051600060405180830381858888f19350505050158015610da3573d6000803e3d6000fd5b5050565b600080606060008060606000805490508710610e2b576040517f08c379a000000000000000000000000000000000000000000000000000000000815260040180806020018281038252601d8152602001807f5472616e73616374696f6e20494420646f6573206e6f7420657869737400000081525060200191505060405180910390fd5b610e336113e7565b60008881548110610e4057fe5b90600052602060002090600702016040518060e0016040529081600082015481526020016001820160009054906101000a900473ffffffffffffffffffffffffffffffffffffffff1673ffffffffffffffffffffffffffffffffffffffff1673ffffffffffffffffffffffffffffffffffffffff168152602001600282018054600181600116156101000203166002900480601f016020809104026020016040519081016040528092919081815260200182805460018160011615610100020316600290048015610f525780601f10610f2757610100808354040283529160200191610f52565b820191906000526020600020905b815481529060010190602001808311610f3557829003601f168201915b50505050508152602001600382015481526020016004820154815260200160058201548152602001600682018054600181600116156101000203166002900480601f0160208091040260200160405190810160405280929190818152602001828054600181600116156101000203166002900480156110125780601f10610fe757610100808354040283529160200191611012565b820191906000526020600020905b815481529060010190602001808311610ff557829003601f168201915b5050505050815250509050806000015196508060200151955080604001519450806060015193508060a0015192508060c0015191505091939550919395565b600081116110c7576040517f08c379a00000000000000000000000000000000000000000000000000000000081526004018080602001828103825260208152602001807f416d6f756e74206d7573742062652067726561746572207468616e207a65726f81525060200191505060405180910390fd5b80471015611120576040517f08c379a00000000000000000000000000000000000000000000000000000000081526004018080602001828103825260248152602001806114606024913960400191505060405180910390fd5b8173ffffffffffffffffffffffffffffffffffffffff166108fc829081150290604051600060405180830381858888f19350505050158015611166573d6000803e3d6000fd5b505050565b600047905090565b6000818154811061118057fe5b90600052602060002090600702016000915090508060000154908060010160009054906101000a900473ffffffffffffffffffffffffffffffffffffffff1690806002018054600181600116156101000203166002900480601f0160208091040260200160405190810160405280929190818152602001828054600181600116156101000203166002900480156112585780601f1061122d57610100808354040283529160200191611258565b820191906000526020600020905b81548152906001019060200180831161123b57829003601f168201915b505050505090806003015490806004015490806005015490806006018054600181600116156101000203166002900480601f0160208091040260200160405190810160405280929190818152602001828054600181600116156101000203166002900480156113085780601f106112dd57610100808354040283529160200191611308565b820191906000526020600020905b8154815290600101906020018083116112eb57829003601f168201915b5050505050905087565b60015481565b34600360003373ffffffffffffffffffffffffffffffffffffffff1673ffffffffffffffffffffffffffffffffffffffff16815260200190815260200160002060008282540192505081905550565b828054600181600116156101000203166002900490600052602060002090601f016020900481019282601f106113a857805160ff19168380011785556113d6565b828001600101855582156113d6579182015b828111156113d55782518255916020019190600101906113ba565b5b5090506113e3919061143a565b5090565b6040518060e0016040528060008152602001600073ffffffffffffffffffffffffffffffffffffffff16815260200160608152602001600081526020016000815260200160008152602001606081525090565b61145c91905b80821115611458576000816000905550600101611440565b5090565b9056fe496e73756666696369656e742062616c616e636520696e2074686520636f6e7472616374a265627a7a72315820a766dc9a37ae932fbd15f29a6d8625d9af3980fe98783537470a266bf386367564736f6c63430005100032",
  "source": "// SPDX-License-Identifier: GPL-3.0\npragma solidity >=0.5.16 <0.9.0;\n\ncontract ProMinTrader {\n    struct Transaction {\n        uint256 id;\n        address walletAddress;\n        string coinId;\n        uint256 amount;\n        uint256 totalPrice;\n        uint256 timestamp;\n        string transactionType;\n    }\n\n    Transaction[] public transactions;\n    uint256 public transactionCount;\n\n    mapping(address => uint256[]) private transactionsByAddress; // Mapping from address to array of transaction IDs\n\n    mapping(address => uint256) public balances;\n\n    constructor() public payable {\n        balances[msg.sender] += msg.value;\n    }\n\n    function deposit() public payable {\n        balances[msg.sender] += msg.value;\n    }\n\n    function withdraw(uint256 _amount) public {\n        require(balances[msg.sender] >= _amount, \"Insufficient balance\");\n        balances[msg.sender] -= _amount;\n        (msg.sender).transfer(_amount);\n    }\n\n    function getContractBalance() public view returns (uint256) {\n        return address(this).balance;\n    }\n\n    function sendToAddress(address payable _recipient, uint256 _amount) public {\n        require(_amount > 0, \"Amount must be greater than zero\");\n        require(\n            address(this).balance >= _amount,\n            \"Insufficient balance in the contract\"\n        );\n        _recipient.transfer(_amount);\n    }\n\n    function addTransaction(\n        address payable _walletAddress,\n        string memory _coinId,\n        uint256 _amount,\n        uint256 _totalPrice,\n        string memory _transactionType\n    ) public payable {\n        uint256 currentTime = block.timestamp;\n        transactions.push(\n            Transaction(\n                transactionCount,\n                _walletAddress,\n                _coinId,\n                _amount,\n                _totalPrice,\n                currentTime,\n                _transactionType\n            )\n        );\n        transactionsByAddress[_walletAddress].push(transactionCount); // Update mapping\n        transactionCount++;\n\n        if (\n            keccak256(abi.encodePacked(_transactionType)) ==\n            keccak256(abi.encodePacked(\"buy\"))\n        ) {\n            require(msg.value >= _totalPrice, \"Insufficient payment\");\n\n            if (msg.value > _totalPrice) {\n                msg.sender.transfer(msg.value - _totalPrice);\n            }\n        } else if (\n            keccak256(abi.encodePacked(_transactionType)) ==\n            keccak256(abi.encodePacked(\"sell\"))\n        ) {\n            require(\n                _totalPrice <= address(this).balance,\n                \"Insufficient balance in contract\"\n            );\n            _walletAddress.transfer(_totalPrice);\n        }\n    }\n\n    function getTransaction(\n        uint256 _transactionId\n    )\n        public\n        view\n        returns (\n            uint256 id,\n            address walletAddress,\n            string memory coinId,\n            uint256 amount,\n            uint256 timestamp,\n            string memory transactionType\n        )\n    {\n        require(\n            _transactionId < transactions.length,\n            \"Transaction ID does not exist\"\n        );\n\n        Transaction memory transaction = transactions[_transactionId];\n\n        id = transaction.id;\n        walletAddress = transaction.walletAddress;\n        coinId = transaction.coinId;\n        amount = transaction.amount;\n        timestamp = transaction.timestamp;\n        transactionType = transaction.transactionType;\n    }\n\n    function getTransactionsByAddress(\n        address _walletAddress\n    ) public view returns (uint256[] memory) {\n        return transactionsByAddress[_walletAddress];\n    }\n\n    // function transferToAddress(address payable _receiver, uint _amount) public {\n    //     require(_amount <= address(this).balance, \"Insufficient balance in contract\");\n    //     _receiver.transfer(_amount);\n    // }\n}\n",
  "sourcePath": "/app/contract-30049/contracts/ProMinTrader.sol",
  "compiler": {
    "name": "solc",
    "version": "0.5.16+commit.9c3226ce.Emscripten.clang"
  },
  "schemaVersion": "3.4.16",
  "updatedAt": "2024-03-20T01:48:22.147Z",
  "networkType": "ethereum",
  "devdoc": {
    "methods": {}
  },
  "userdoc": {
    "methods": {}
  }
}