{
  "contractName": "ProMinTrader",
  "abi": [
    {
      "inputs": [],
      "payable": true,
      "stateMutability": "payable",
      "type": "constructor"
    },
    {
      "constant": true,
      "inputs": [
        {
          "internalType": "address",
          "name": "",
          "type": "address"
        }
      ],
      "name": "balances",
      "outputs": [
        {
          "internalType": "uint256",
          "name": "",
          "type": "uint256"
        }
      ],
      "payable": false,
      "stateMutability": "view",
      "type": "function"
    },
    {
      "constant": true,
      "inputs": [],
      "name": "transactionCount",
      "outputs": [
        {
          "internalType": "uint256",
          "name": "",
          "type": "uint256"
        }
      ],
      "payable": false,
      "stateMutability": "view",
      "type": "function"
    },
    {
      "constant": true,
      "inputs": [
        {
          "internalType": "uint256",
          "name": "",
          "type": "uint256"
        }
      ],
      "name": "transactions",
      "outputs": [
        {
          "internalType": "uint256",
          "name": "id",
          "type": "uint256"
        },
        {
          "internalType": "address",
          "name": "walletAddress",
          "type": "address"
        },
        {
          "internalType": "string",
          "name": "coinId",
          "type": "string"
        },
        {
          "internalType": "uint256",
          "name": "amount",
          "type": "uint256"
        },
        {
          "internalType": "uint256",
          "name": "totalPrice",
          "type": "uint256"
        },
        {
          "internalType": "uint256",
          "name": "timestamp",
          "type": "uint256"
        },
        {
          "internalType": "string",
          "name": "transactionType",
          "type": "string"
        }
      ],
      "payable": false,
      "stateMutability": "view",
      "type": "function"
    },
    {
      "constant": false,
      "inputs": [],
      "name": "deposit",
      "outputs": [],
      "payable": true,
      "stateMutability": "payable",
      "type": "function"
    },
    {
      "constant": false,
      "inputs": [
        {
          "internalType": "uint256",
          "name": "_amount",
          "type": "uint256"
        }
      ],
      "name": "withdraw",
      "outputs": [],
      "payable": false,
      "stateMutability": "nonpayable",
      "type": "function"
    },
    {
      "constant": true,
      "inputs": [],
      "name": "getContractBalance",
      "outputs": [
        {
          "internalType": "uint256",
          "name": "",
          "type": "uint256"
        }
      ],
      "payable": false,
      "stateMutability": "view",
      "type": "function"
    },
    {
      "constant": false,
      "inputs": [
        {
          "internalType": "address payable",
          "name": "_recipient",
          "type": "address"
        },
        {
          "internalType": "uint256",
          "name": "_amount",
          "type": "uint256"
        }
      ],
      "name": "sendToAddress",
      "outputs": [],
      "payable": false,
      "stateMutability": "nonpayable",
      "type": "function"
    },
    {
      "constant": false,
      "inputs": [
        {
          "internalType": "address payable",
          "name": "_walletAddress",
          "type": "address"
        },
        {
          "internalType": "string",
          "name": "_coinId",
          "type": "string"
        },
        {
          "internalType": "uint256",
          "name": "_amount",
          "type": "uint256"
        },
        {
          "internalType": "uint256",
          "name": "_totalPrice",
          "type": "uint256"
        },
        {
          "internalType": "string",
          "name": "_transactionType",
          "type": "string"
        }
      ],
      "name": "addTransaction",
      "outputs": [],
      "payable": true,
      "stateMutability": "payable",
      "type": "function"
    },
    {
      "constant": true,
      "inputs": [
        {
          "internalType": "uint256",
          "name": "_transactionId",
          "type": "uint256"
        }
      ],
      "name": "getTransactionById",
      "outputs": [
        {
          "components": [
            {
              "internalType": "uint256",
              "name": "id",
              "type": "uint256"
            },
            {
              "internalType": "address",
              "name": "walletAddress",
              "type": "address"
            },
            {
              "internalType": "string",
              "name": "coinId",
              "type": "string"
            },
            {
              "internalType": "uint256",
              "name": "amount",
              "type": "uint256"
            },
            {
              "internalType": "uint256",
              "name": "totalPrice",
              "type": "uint256"
            },
            {
              "internalType": "uint256",
              "name": "timestamp",
              "type": "uint256"
            },
            {
              "internalType": "string",
              "name": "transactionType",
              "type": "string"
            }
          ],
          "internalType": "struct ProMinTrader.Transaction",
          "name": "",
          "type": "tuple"
        }
      ],
      "payable": false,
      "stateMutability": "view",
      "type": "function"
    },
    {
      "constant": true,
      "inputs": [
        {
          "internalType": "address",
          "name": "_walletAddress",
          "type": "address"
        }
      ],
      "name": "getIdTransactionsByAddress",
      "outputs": [
        {
          "internalType": "uint256[]",
          "name": "",
          "type": "uint256[]"
        }
      ],
      "payable": false,
      "stateMutability": "view",
      "type": "function"
    },
    {
      "constant": true,
      "inputs": [
        {
          "internalType": "address",
          "name": "_walletAddress",
          "type": "address"
        }
      ],
      "name": "getTransactionsByWalletAddress",
      "outputs": [
        {
          "components": [
            {
              "internalType": "uint256",
              "name": "id",
              "type": "uint256"
            },
            {
              "internalType": "address",
              "name": "walletAddress",
              "type": "address"
            },
            {
              "internalType": "string",
              "name": "coinId",
              "type": "string"
            },
            {
              "internalType": "uint256",
              "name": "amount",
              "type": "uint256"
            },
            {
              "internalType": "uint256",
              "name": "totalPrice",
              "type": "uint256"
            },
            {
              "internalType": "uint256",
              "name": "timestamp",
              "type": "uint256"
            },
            {
              "internalType": "string",
              "name": "transactionType",
              "type": "string"
            }
          ],
          "internalType": "struct ProMinTrader.Transaction[]",
          "name": "",
          "type": "tuple[]"
        }
      ],
      "payable": false,
      "stateMutability": "view",
      "type": "function"
    }
  ],
  "bytecode": "0x608060405234600360003373ffffffffffffffffffffffffffffffffffffffff1673ffffffffffffffffffffffffffffffffffffffff16815260200190815260200160002060008282540192505081905550611c0b806100606000396000f3fe60806040526004361061009c5760003560e01c80636f9fb98a116100645780636f9fb98a146101895780639ace38c2146101b4578063b77bf600146101f7578063c61c212014610222578063d0e30db01461025f578063f4b30eaf146102695761009c565b806327e235e3146100a15780632cc7af5e146100de5780632e1a7d4d146100fa5780633debd2d814610123578063601a56cf1461014c575b600080fd5b3480156100ad57600080fd5b506100c860048036036100c39190810190611156565b6102a6565b6040516100d5919061193c565b60405180910390f35b6100f860048036036100f3919081019061117f565b6102be565b005b34801561010657600080fd5b50610121600480360361011c9190810190611262565b610636565b005b34801561012f57600080fd5b5061014a60048036036101459190810190611226565b61074f565b005b34801561015857600080fd5b50610173600480360361016e9190810190611156565b610820565b6040516101809190611838565b60405180910390f35b34801561019557600080fd5b5061019e6108b7565b6040516101ab919061193c565b60405180910390f35b3480156101c057600080fd5b506101db60048036036101d69190810190611262565b6108bf565b6040516101ee9796959493929190611957565b60405180910390f35b34801561020357600080fd5b5061020c610a5e565b604051610219919061193c565b60405180910390f35b34801561022e57600080fd5b5061024960048036036102449190810190611156565b610a64565b6040516102569190611816565b60405180910390f35b610267610ceb565b005b34801561027557600080fd5b50610290600480360361028b9190810190611262565b610d3a565b60405161029d919061191a565b60405180910390f35b60036020528060005260406000206000915090505481565b600042905060006040518060e0016040528060015481526020018873ffffffffffffffffffffffffffffffffffffffff16815260200187815260200186815260200185815260200183815260200184815250908060018154018082558091505090600182039060005260206000209060070201600090919290919091506000820151816000015560208201518160010160006101000a81548173ffffffffffffffffffffffffffffffffffffffff021916908373ffffffffffffffffffffffffffffffffffffffff16021790555060408201518160020190805190602001906103a8929190610f78565b50606082015181600301556080820151816004015560a0820151816005015560c08201518160060190805190602001906103e3929190610f78565b50505050600260008773ffffffffffffffffffffffffffffffffffffffff1673ffffffffffffffffffffffffffffffffffffffff1681526020019081526020016000206001549080600181540180825580915050906001820390600052602060002001600090919290919091505550600160008154809291906001019190505550604051602001610473906117ec565b604051602081830303815290604052805190602001208260405160200161049a91906117d5565b60405160208183030381529060405280519060200120141561055057823410156104f9576040517f08c379a00000000000000000000000000000000000000000000000000000000081526004016104f0906118ba565b60405180910390fd5b8234111561054b573373ffffffffffffffffffffffffffffffffffffffff166108fc8434039081150290604051600060405180830381858888f19350505050158015610549573d6000803e3d6000fd5b505b61062e565b60405160200161055f90611801565b604051602081830303815290604052805190602001208260405160200161058691906117d5565b60405160208183030381529060405280519060200120141561062d57478311156105e5576040517f08c379a00000000000000000000000000000000000000000000000000000000081526004016105dc9061189a565b60405180910390fd5b8573ffffffffffffffffffffffffffffffffffffffff166108fc849081150290604051600060405180830381858888f1935050505015801561062b573d6000803e3d6000fd5b505b5b505050505050565b80600360003373ffffffffffffffffffffffffffffffffffffffff1673ffffffffffffffffffffffffffffffffffffffff1681526020019081526020016000205410156106b8576040517f08c379a00000000000000000000000000000000000000000000000000000000081526004016106af9061187a565b60405180910390fd5b80600360003373ffffffffffffffffffffffffffffffffffffffff1673ffffffffffffffffffffffffffffffffffffffff168152602001908152602001600020600082825403925050819055503373ffffffffffffffffffffffffffffffffffffffff166108fc829081150290604051600060405180830381858888f1935050505015801561074b573d6000803e3d6000fd5b5050565b60008111610792576040517f08c379a00000000000000000000000000000000000000000000000000000000081526004016107899061185a565b60405180910390fd5b804710156107d5576040517f08c379a00000000000000000000000000000000000000000000000000000000081526004016107cc906118fa565b60405180910390fd5b8173ffffffffffffffffffffffffffffffffffffffff166108fc829081150290604051600060405180830381858888f1935050505015801561081b573d6000803e3d6000fd5b505050565b6060600260008373ffffffffffffffffffffffffffffffffffffffff1673ffffffffffffffffffffffffffffffffffffffff1681526020019081526020016000208054806020026020016040519081016040528092919081815260200182805480156108ab57602002820191906000526020600020905b815481526020019060010190808311610897575b50505050509050919050565b600047905090565b600081815481106108cc57fe5b90600052602060002090600702016000915090508060000154908060010160009054906101000a900473ffffffffffffffffffffffffffffffffffffffff1690806002018054600181600116156101000203166002900480601f0160208091040260200160405190810160405280929190818152602001828054600181600116156101000203166002900480156109a45780601f10610979576101008083540402835291602001916109a4565b820191906000526020600020905b81548152906001019060200180831161098757829003601f168201915b505050505090806003015490806004015490806005015490806006018054600181600116156101000203166002900480601f016020809104026020016040519081016040528092919081815260200182805460018160011615610100020316600290048015610a545780601f10610a2957610100808354040283529160200191610a54565b820191906000526020600020905b815481529060010190602001808311610a3757829003601f168201915b5050505050905087565b60015481565b606080610a7083610820565b905060608151604051908082528060200260200182016040528015610aaf57816020015b610a9c610ff8565b815260200190600190039081610a945790505b50905060008090505b8251811015610ce0576000838281518110610acf57fe5b602002602001015181548110610ae157fe5b90600052602060002090600702016040518060e0016040529081600082015481526020016001820160009054906101000a900473ffffffffffffffffffffffffffffffffffffffff1673ffffffffffffffffffffffffffffffffffffffff1673ffffffffffffffffffffffffffffffffffffffff168152602001600282018054600181600116156101000203166002900480601f016020809104026020016040519081016040528092919081815260200182805460018160011615610100020316600290048015610bf35780601f10610bc857610100808354040283529160200191610bf3565b820191906000526020600020905b815481529060010190602001808311610bd657829003601f168201915b50505050508152602001600382015481526020016004820154815260200160058201548152602001600682018054600181600116156101000203166002900480601f016020809104026020016040519081016040528092919081815260200182805460018160011615610100020316600290048015610cb35780601f10610c8857610100808354040283529160200191610cb3565b820191906000526020600020905b815481529060010190602001808311610c9657829003601f168201915b505050505081525050828281518110610cc857fe5b60200260200101819052508080600101915050610ab8565b508092505050919050565b34600360003373ffffffffffffffffffffffffffffffffffffffff1673ffffffffffffffffffffffffffffffffffffffff16815260200190815260200160002060008282540192505081905550565b610d4261104b565b6000805490508210610d89576040517f08c379a0000000000000000000000000000000000000000000000000000000008152600401610d80906118da565b60405180910390fd5b60008281548110610d9657fe5b90600052602060002090600702016040518060e0016040529081600082015481526020016001820160009054906101000a900473ffffffffffffffffffffffffffffffffffffffff1673ffffffffffffffffffffffffffffffffffffffff1673ffffffffffffffffffffffffffffffffffffffff168152602001600282018054600181600116156101000203166002900480601f016020809104026020016040519081016040528092919081815260200182805460018160011615610100020316600290048015610ea85780601f10610e7d57610100808354040283529160200191610ea8565b820191906000526020600020905b815481529060010190602001808311610e8b57829003601f168201915b50505050508152602001600382015481526020016004820154815260200160058201548152602001600682018054600181600116156101000203166002900480601f016020809104026020016040519081016040528092919081815260200182805460018160011615610100020316600290048015610f685780601f10610f3d57610100808354040283529160200191610f68565b820191906000526020600020905b815481529060010190602001808311610f4b57829003601f168201915b5050505050815250509050919050565b828054600181600116156101000203166002900490600052602060002090601f016020900481019282601f10610fb957805160ff1916838001178555610fe7565b82800160010185558215610fe7579182015b82811115610fe6578251825591602001919060010190610fcb565b5b509050610ff4919061109e565b5090565b6040518060e0016040528060008152602001600073ffffffffffffffffffffffffffffffffffffffff16815260200160608152602001600081526020016000815260200160008152602001606081525090565b6040518060e0016040528060008152602001600073ffffffffffffffffffffffffffffffffffffffff16815260200160608152602001600081526020016000815260200160008152602001606081525090565b6110c091905b808211156110bc5760008160009055506001016110a4565b5090565b90565b6000813590506110d281611b83565b92915050565b6000813590506110e781611b9a565b92915050565b600082601f8301126110fe57600080fd5b813561111161110c82611a01565b6119d4565b9150808252602083016020830185838301111561112d57600080fd5b611138838284611b30565b50505092915050565b60008135905061115081611bb1565b92915050565b60006020828403121561116857600080fd5b6000611176848285016110c3565b91505092915050565b600080600080600060a0868803121561119757600080fd5b60006111a5888289016110d8565b955050602086013567ffffffffffffffff8111156111c257600080fd5b6111ce888289016110ed565b94505060406111df88828901611141565b93505060606111f088828901611141565b925050608086013567ffffffffffffffff81111561120d57600080fd5b611219888289016110ed565b9150509295509295909350565b6000806040838503121561123957600080fd5b6000611247858286016110d8565b925050602061125885828601611141565b9150509250929050565b60006020828403121561127457600080fd5b600061128284828501611141565b91505092915050565b60006112978383611714565b905092915050565b60006112ab83836117b7565b60208301905092915050565b6112c081611ae2565b82525050565b6112cf81611ae2565b82525050565b60006112e082611a4d565b6112ea8185611a93565b9350836020820285016112fc85611a2d565b8060005b858110156113385784840389528151611319858261128b565b945061132483611a79565b925060208a01995050600181019050611300565b50829750879550505050505092915050565b600061135582611a58565b61135f8185611aa4565b935061136a83611a3d565b8060005b8381101561139b578151611382888261129f565b975061138d83611a86565b92505060018101905061136e565b5085935050505092915050565b60006113b382611a6e565b6113bd8185611ad7565b93506113cd818560208601611b3f565b80840191505092915050565b60006113e482611a63565b6113ee8185611ab5565b93506113fe818560208601611b3f565b61140781611b72565b840191505092915050565b600061141d82611a63565b6114278185611ac6565b9350611437818560208601611b3f565b61144081611b72565b840191505092915050565b6000611458602083611ac6565b91507f416d6f756e74206d7573742062652067726561746572207468616e207a65726f6000830152602082019050919050565b6000611498601483611ac6565b91507f496e73756666696369656e742062616c616e63650000000000000000000000006000830152602082019050919050565b60006114d8602083611ac6565b91507f496e73756666696369656e742062616c616e636520696e20636f6e74726163746000830152602082019050919050565b6000611518600383611ad7565b91507f62757900000000000000000000000000000000000000000000000000000000006000830152600382019050919050565b6000611558601483611ac6565b91507f496e73756666696369656e74207061796d656e740000000000000000000000006000830152602082019050919050565b6000611598601d83611ac6565b91507f5472616e73616374696f6e20494420646f6573206e6f742065786973740000006000830152602082019050919050565b60006115d8600483611ad7565b91507f73656c6c000000000000000000000000000000000000000000000000000000006000830152600482019050919050565b6000611618602483611ac6565b91507f496e73756666696369656e742062616c616e636520696e2074686520636f6e7460008301527f72616374000000000000000000000000000000000000000000000000000000006020830152604082019050919050565b600060e08301600083015161168960008601826117b7565b50602083015161169c60208601826112b7565b50604083015184820360408601526116b482826113d9565b91505060608301516116c960608601826117b7565b5060808301516116dc60808601826117b7565b5060a08301516116ef60a08601826117b7565b5060c083015184820360c086015261170782826113d9565b9150508091505092915050565b600060e08301600083015161172c60008601826117b7565b50602083015161173f60208601826112b7565b506040830151848203604086015261175782826113d9565b915050606083015161176c60608601826117b7565b50608083015161177f60808601826117b7565b5060a083015161179260a08601826117b7565b5060c083015184820360c08601526117aa82826113d9565b9150508091505092915050565b6117c081611b26565b82525050565b6117cf81611b26565b82525050565b60006117e182846113a8565b915081905092915050565b60006117f78261150b565b9150819050919050565b600061180c826115cb565b9150819050919050565b6000602082019050818103600083015261183081846112d5565b905092915050565b60006020820190508181036000830152611852818461134a565b905092915050565b600060208201905081810360008301526118738161144b565b9050919050565b600060208201905081810360008301526118938161148b565b9050919050565b600060208201905081810360008301526118b3816114cb565b9050919050565b600060208201905081810360008301526118d38161154b565b9050919050565b600060208201905081810360008301526118f38161158b565b9050919050565b600060208201905081810360008301526119138161160b565b9050919050565b600060208201905081810360008301526119348184611671565b905092915050565b600060208201905061195160008301846117c6565b92915050565b600060e08201905061196c600083018a6117c6565b61197960208301896112c6565b818103604083015261198b8188611412565b905061199a60608301876117c6565b6119a760808301866117c6565b6119b460a08301856117c6565b81810360c08301526119c68184611412565b905098975050505050505050565b6000604051905081810181811067ffffffffffffffff821117156119f757600080fd5b8060405250919050565b600067ffffffffffffffff821115611a1857600080fd5b601f19601f8301169050602081019050919050565b6000819050602082019050919050565b6000819050602082019050919050565b600081519050919050565b600081519050919050565b600081519050919050565b600081519050919050565b6000602082019050919050565b6000602082019050919050565b600082825260208201905092915050565b600082825260208201905092915050565b600082825260208201905092915050565b600082825260208201905092915050565b600081905092915050565b6000611aed82611b06565b9050919050565b6000611aff82611b06565b9050919050565b600073ffffffffffffffffffffffffffffffffffffffff82169050919050565b6000819050919050565b82818337600083830152505050565b60005b83811015611b5d578082015181840152602081019050611b42565b83811115611b6c576000848401525b50505050565b6000601f19601f8301169050919050565b611b8c81611ae2565b8114611b9757600080fd5b50565b611ba381611af4565b8114611bae57600080fd5b50565b611bba81611b26565b8114611bc557600080fd5b5056fea365627a7a72315820a7c1df8486980bd39fe17fc0b0883550a0dba4d31ba33d1ed2d2293ceb4bc4a26c6578706572696d656e74616cf564736f6c63430005100040",
  "source": "// SPDX-License-Identifier: GPL-3.0\npragma solidity >=0.5.16 <0.9.0;\n\npragma experimental ABIEncoderV2;\n\ncontract ProMinTrader {\n    struct Transaction {\n        uint256 id;\n        address walletAddress;\n        string coinId;\n        uint256 amount;\n        uint256 totalPrice;\n        uint256 timestamp;\n        string transactionType;\n    }\n\n    Transaction[] public transactions;\n    uint256 public transactionCount;\n\n    mapping(address => uint256[]) private transactionsByAddress; // Mapping from address to array of transaction IDs\n\n    mapping(address => uint256) public balances;\n\n    constructor() public payable {\n        balances[msg.sender] += msg.value;\n    }\n\n    function deposit() public payable {\n        balances[msg.sender] += msg.value;\n    }\n\n    function withdraw(uint256 _amount) public {\n        require(balances[msg.sender] >= _amount, \"Insufficient balance\");\n        balances[msg.sender] -= _amount;\n        (msg.sender).transfer(_amount);\n    }\n\n    function getContractBalance() public view returns (uint256) {\n        return address(this).balance;\n    }\n\n    function sendToAddress(address payable _recipient, uint256 _amount) public {\n        require(_amount > 0, \"Amount must be greater than zero\");\n        require(\n            address(this).balance >= _amount,\n            \"Insufficient balance in the contract\"\n        );\n        _recipient.transfer(_amount);\n    }\n\n    function addTransaction(\n        address payable _walletAddress,\n        string memory _coinId,\n        uint256 _amount,\n        uint256 _totalPrice,\n        string memory _transactionType\n    ) public payable {\n        uint256 currentTime = block.timestamp;\n        transactions.push(\n            Transaction(\n                transactionCount,\n                _walletAddress,\n                _coinId,\n                _amount,\n                _totalPrice,\n                currentTime,\n                _transactionType\n            )\n        );\n        transactionsByAddress[_walletAddress].push(transactionCount); // Update mapping\n        transactionCount++;\n\n        if (keccak256(abi.encodePacked(_transactionType)) == keccak256(abi.encodePacked(\"buy\"))) {\n                require(msg.value >= _totalPrice, \"Insufficient payment\");\n            \n                if (msg.value > _totalPrice) {\n                    msg.sender.transfer(msg.value - _totalPrice);\n                }\n            }\n        else if (keccak256(abi.encodePacked(_transactionType)) == keccak256(abi.encodePacked(\"sell\"))) {\n            require(_totalPrice <= address(this).balance, \"Insufficient balance in contract\");\n            _walletAddress.transfer(_totalPrice);\n        }\n    }\n\n    function getTransactionById(uint256 _transactionId) public view returns (Transaction memory) {\n        require(_transactionId < transactions.length, \"Transaction ID does not exist\");\n        return transactions[_transactionId];\n    }\n    \n    function getIdTransactionsByAddress(address _walletAddress) public view returns (uint256[] memory) {\n        return transactionsByAddress[_walletAddress];\n    }\n\n    function getTransactionsByWalletAddress(address _walletAddress) public view returns (Transaction[] memory) {\n        uint256[] memory transactionIds = getIdTransactionsByAddress(_walletAddress);\n        Transaction[] memory userTransactions = new Transaction[](transactionIds.length);\n\n        for (uint256 i = 0; i < transactionIds.length; i++) {\n            userTransactions[i] = transactions[transactionIds[i]];\n        }\n\n        return userTransactions;\n    }\n\n}\n\n",
  "sourcePath": "/app/contract-30049/contracts/ProMinTrader.sol",
  "compiler": {
    "name": "solc",
    "version": "0.5.16+commit.9c3226ce.Emscripten.clang"
  },
  "schemaVersion": "3.4.16",
  "updatedAt": "2024-03-23T16:42:23.452Z",
  "networkType": "ethereum",
  "devdoc": {
    "methods": {}
  },
  "userdoc": {
    "methods": {}
  }
}